{
  "_format": "hh-sol-artifact-1",
  "contractName": "Airdrop",
  "sourceName": "contracts/Airdrop.sol",
  "abi": [
    {
      "inputs": [
        {
          "internalType": "bytes32",
          "name": "_merkleRoot",
          "type": "bytes32"
        },
        {
          "internalType": "address",
          "name": "_tokenAddress",
          "type": "address"
        }
      ],
      "stateMutability": "nonpayable",
      "type": "constructor"
    },
    {
      "inputs": [],
      "name": "EnforcedPause",
      "type": "error"
    },
    {
      "inputs": [],
      "name": "ExpectedPause",
      "type": "error"
    },
    {
      "inputs": [
        {
          "internalType": "address",
          "name": "owner",
          "type": "address"
        }
      ],
      "name": "OwnableInvalidOwner",
      "type": "error"
    },
    {
      "inputs": [
        {
          "internalType": "address",
          "name": "account",
          "type": "address"
        }
      ],
      "name": "OwnableUnauthorizedAccount",
      "type": "error"
    },
    {
      "anonymous": false,
      "inputs": [
        {
          "indexed": true,
          "internalType": "address",
          "name": "previousOwner",
          "type": "address"
        },
        {
          "indexed": true,
          "internalType": "address",
          "name": "newOwner",
          "type": "address"
        }
      ],
      "name": "OwnershipTransferred",
      "type": "event"
    },
    {
      "anonymous": false,
      "inputs": [
        {
          "indexed": false,
          "internalType": "address",
          "name": "account",
          "type": "address"
        }
      ],
      "name": "Paused",
      "type": "event"
    },
    {
      "anonymous": false,
      "inputs": [
        {
          "indexed": true,
          "internalType": "address",
          "name": "account",
          "type": "address"
        },
        {
          "indexed": false,
          "internalType": "uint256",
          "name": "amount",
          "type": "uint256"
        }
      ],
      "name": "TokensAirdropped",
      "type": "event"
    },
    {
      "anonymous": false,
      "inputs": [
        {
          "indexed": false,
          "internalType": "address",
          "name": "account",
          "type": "address"
        }
      ],
      "name": "Unpaused",
      "type": "event"
    },
    {
      "inputs": [
        {
          "internalType": "bytes32[]",
          "name": "_witnesses",
          "type": "bytes32[]"
        },
        {
          "internalType": "uint256",
          "name": "_totalAmount",
          "type": "uint256"
        },
        {
          "internalType": "uint256",
          "name": "_amount",
          "type": "uint256"
        },
        {
          "internalType": "uint256",
          "name": "_path",
          "type": "uint256"
        }
      ],
      "name": "airdrop",
      "outputs": [],
      "stateMutability": "nonpayable",
      "type": "function"
    },
    {
      "inputs": [],
      "name": "getAirdropTokenBalance",
      "outputs": [
        {
          "internalType": "uint256",
          "name": "",
          "type": "uint256"
        }
      ],
      "stateMutability": "view",
      "type": "function"
    },
    {
      "inputs": [],
      "name": "merkleRoot",
      "outputs": [
        {
          "internalType": "bytes32",
          "name": "",
          "type": "bytes32"
        }
      ],
      "stateMutability": "view",
      "type": "function"
    },
    {
      "inputs": [],
      "name": "owner",
      "outputs": [
        {
          "internalType": "address",
          "name": "",
          "type": "address"
        }
      ],
      "stateMutability": "view",
      "type": "function"
    },
    {
      "inputs": [],
      "name": "pause",
      "outputs": [],
      "stateMutability": "nonpayable",
      "type": "function"
    },
    {
      "inputs": [],
      "name": "paused",
      "outputs": [
        {
          "internalType": "bool",
          "name": "",
          "type": "bool"
        }
      ],
      "stateMutability": "view",
      "type": "function"
    },
    {
      "inputs": [
        {
          "internalType": "address",
          "name": "",
          "type": "address"
        }
      ],
      "name": "redeemed",
      "outputs": [
        {
          "internalType": "uint256",
          "name": "",
          "type": "uint256"
        }
      ],
      "stateMutability": "view",
      "type": "function"
    },
    {
      "inputs": [
        {
          "internalType": "address",
          "name": "account",
          "type": "address"
        }
      ],
      "name": "redeemedTokens",
      "outputs": [
        {
          "internalType": "uint256",
          "name": "",
          "type": "uint256"
        }
      ],
      "stateMutability": "view",
      "type": "function"
    },
    {
      "inputs": [],
      "name": "renounceOwnership",
      "outputs": [],
      "stateMutability": "nonpayable",
      "type": "function"
    },
    {
      "inputs": [],
      "name": "token",
      "outputs": [
        {
          "internalType": "contract MyToken",
          "name": "",
          "type": "address"
        }
      ],
      "stateMutability": "view",
      "type": "function"
    },
    {
      "inputs": [
        {
          "internalType": "address",
          "name": "",
          "type": "address"
        }
      ],
      "name": "totalAssigned",
      "outputs": [
        {
          "internalType": "uint256",
          "name": "",
          "type": "uint256"
        }
      ],
      "stateMutability": "view",
      "type": "function"
    },
    {
      "inputs": [
        {
          "internalType": "address",
          "name": "account",
          "type": "address"
        }
      ],
      "name": "totalAssignedTokens",
      "outputs": [
        {
          "internalType": "uint256",
          "name": "",
          "type": "uint256"
        }
      ],
      "stateMutability": "view",
      "type": "function"
    },
    {
      "inputs": [
        {
          "internalType": "address",
          "name": "newOwner",
          "type": "address"
        }
      ],
      "name": "transferOwnership",
      "outputs": [],
      "stateMutability": "nonpayable",
      "type": "function"
    },
    {
      "inputs": [],
      "name": "unpause",
      "outputs": [],
      "stateMutability": "nonpayable",
      "type": "function"
    },
    {
      "inputs": [
        {
          "internalType": "bytes32",
          "name": "_airDropWhiteListMerkleRoot",
          "type": "bytes32"
        }
      ],
      "name": "updateMerkleRoot",
      "outputs": [],
      "stateMutability": "nonpayable",
      "type": "function"
    }
  ],
  "bytecode": "0x608060405234801561001057600080fd5b506040516119613803806119618339818101604052810190610032919061027b565b33600073ffffffffffffffffffffffffffffffffffffffff168173ffffffffffffffffffffffffffffffffffffffff16036100a55760006040517f1e4fbdf700000000000000000000000000000000000000000000000000000000815260040161009c91906102ca565b60405180910390fd5b6100b48161011e60201b60201c565b5060008060146101000a81548160ff0219169083151502179055508160018190555080600260006101000a81548173ffffffffffffffffffffffffffffffffffffffff021916908373ffffffffffffffffffffffffffffffffffffffff16021790555050506102e5565b60008060009054906101000a900473ffffffffffffffffffffffffffffffffffffffff169050816000806101000a81548173ffffffffffffffffffffffffffffffffffffffff021916908373ffffffffffffffffffffffffffffffffffffffff1602179055508173ffffffffffffffffffffffffffffffffffffffff168173ffffffffffffffffffffffffffffffffffffffff167f8be0079c531659141344cd1fd0a4f28419497f9722a3daafe3b4186f6b6457e060405160405180910390a35050565b600080fd5b6000819050919050565b6101fa816101e7565b811461020557600080fd5b50565b600081519050610217816101f1565b92915050565b600073ffffffffffffffffffffffffffffffffffffffff82169050919050565b60006102488261021d565b9050919050565b6102588161023d565b811461026357600080fd5b50565b6000815190506102758161024f565b92915050565b60008060408385031215610292576102916101e2565b5b60006102a085828601610208565b92505060206102b185828601610266565b9150509250929050565b6102c48161023d565b82525050565b60006020820190506102df60008301846102bb565b92915050565b61166d806102f46000396000f3fe608060405234801561001057600080fd5b50600436106100f55760003560e01c8063682eb32b116100975780639f4568ef116100665780639f4568ef14610228578063e3a82b8b14610258578063f2fde38b14610288578063fc0c546a146102a4576100f5565b8063682eb32b146101c6578063715018a6146101f65780638456cb59146102005780638da5cb5b1461020a576100f5565b806343101ddb116100d357806343101ddb1461013e5780634783f0ef1461016e57806357212ae91461018a5780635c975abb146101a8576100f5565b8063041579db146100fa5780632eb4a7ab146101165780633f4ba83a14610134575b600080fd5b610114600480360381019061010f9190610eac565b6102c2565b005b61011e61079a565b60405161012b9190610f3e565b60405180910390f35b61013c6107a0565b005b61015860048036038101906101539190610fb7565b6107b2565b6040516101659190610ff3565b60405180910390f35b6101886004803603810190610183919061100e565b6107ca565b005b6101926107dc565b60405161019f9190610ff3565b60405180910390f35b6101b061087f565b6040516101bd9190611056565b60405180910390f35b6101e060048036038101906101db9190610fb7565b610895565b6040516101ed9190610ff3565b60405180910390f35b6101fe6108de565b005b6102086108f2565b005b610212610904565b60405161021f9190611080565b60405180910390f35b610242600480360381019061023d9190610fb7565b61092d565b60405161024f9190610ff3565b60405180910390f35b610272600480360381019061026d9190610fb7565b610945565b60405161027f9190610ff3565b60405180910390f35b6102a2600480360381019061029d9190610fb7565b61098e565b005b6102ac610a14565b6040516102b991906110fa565b60405180910390f35b6102ca610a3a565b81600260009054906101000a900473ffffffffffffffffffffffffffffffffffffffff1673ffffffffffffffffffffffffffffffffffffffff166370a08231306040518263ffffffff1660e01b81526004016103269190611080565b602060405180830381865afa158015610343573d6000803e3d6000fd5b505050506040513d601f19601f82011682018060405250810190610367919061112a565b10156103a8576040517f08c379a000000000000000000000000000000000000000000000000000000000815260040161039f906111da565b60405180910390fd5b60008033856040516020016103bf939291906112a6565b60405160208183030381529060405280519060200120905060005b85518161ffff1610156104b157600180841603610442576001868261ffff168151811061040a576104096112e3565b5b60200260200101518360405160200161042593929190611333565b60405160208183030381529060405280519060200120915061048f565b600182878361ffff168151811061045c5761045b6112e3565b5b602002602001015160405160200161047693929190611333565b6040516020818303038152906040528051906020012091505b60028361049c91906113ce565b925080806104a99061140d565b9150506103da565b5060015481146104f6576040517f08c379a00000000000000000000000000000000000000000000000000000000081526004016104ed906114cf565b60405180910390fd5b6000600460003373ffffffffffffffffffffffffffffffffffffffff1673ffffffffffffffffffffffffffffffffffffffff16815260200190815260200160002054036105825783600460003373ffffffffffffffffffffffffffffffffffffffff1673ffffffffffffffffffffffffffffffffffffffff168152602001908152602001600020819055505b600460003373ffffffffffffffffffffffffffffffffffffffff1673ffffffffffffffffffffffffffffffffffffffff1681526020019081526020016000205483600360003373ffffffffffffffffffffffffffffffffffffffff1673ffffffffffffffffffffffffffffffffffffffff1681526020019081526020016000205461060d91906114ef565b111561064e576040517f08c379a000000000000000000000000000000000000000000000000000000000815260040161064590611595565b60405180910390fd5b82600360003373ffffffffffffffffffffffffffffffffffffffff1673ffffffffffffffffffffffffffffffffffffffff168152602001908152602001600020600082825461069d91906114ef565b92505081905550600260009054906101000a900473ffffffffffffffffffffffffffffffffffffffff1673ffffffffffffffffffffffffffffffffffffffff1663a9059cbb33856040518363ffffffff1660e01b81526004016107019291906115b5565b6020604051808303816000875af1158015610720573d6000803e3d6000fd5b505050506040513d601f19601f82011682018060405250810190610744919061160a565b503373ffffffffffffffffffffffffffffffffffffffff167fb82d2a7de6e3c04c554cd659f5f2b8d49c0131c0363c91a4ccef6756d16029908460405161078b9190610ff3565b60405180910390a25050505050565b60015481565b6107a8610a7b565b6107b0610b02565b565b60046020528060005260406000206000915090505481565b6107d2610a7b565b8060018190555050565b6000600260009054906101000a900473ffffffffffffffffffffffffffffffffffffffff1673ffffffffffffffffffffffffffffffffffffffff166370a08231306040518263ffffffff1660e01b81526004016108399190611080565b602060405180830381865afa158015610856573d6000803e3d6000fd5b505050506040513d601f19601f8201168201806040525081019061087a919061112a565b905090565b60008060149054906101000a900460ff16905090565b6000600360008373ffffffffffffffffffffffffffffffffffffffff1673ffffffffffffffffffffffffffffffffffffffff168152602001908152602001600020549050919050565b6108e6610a7b565b6108f06000610b64565b565b6108fa610a7b565b610902610c28565b565b60008060009054906101000a900473ffffffffffffffffffffffffffffffffffffffff16905090565b60036020528060005260406000206000915090505481565b6000600460008373ffffffffffffffffffffffffffffffffffffffff1673ffffffffffffffffffffffffffffffffffffffff168152602001908152602001600020549050919050565b610996610a7b565b600073ffffffffffffffffffffffffffffffffffffffff168173ffffffffffffffffffffffffffffffffffffffff1603610a085760006040517f1e4fbdf70000000000000000000000000000000000000000000000000000000081526004016109ff9190611080565b60405180910390fd5b610a1181610b64565b50565b600260009054906101000a900473ffffffffffffffffffffffffffffffffffffffff1681565b610a4261087f565b15610a79576040517fd93c066500000000000000000000000000000000000000000000000000000000815260040160405180910390fd5b565b610a83610c8b565b73ffffffffffffffffffffffffffffffffffffffff16610aa1610904565b73ffffffffffffffffffffffffffffffffffffffff1614610b0057610ac4610c8b565b6040517f118cdaa7000000000000000000000000000000000000000000000000000000008152600401610af79190611080565b60405180910390fd5b565b610b0a610c93565b60008060146101000a81548160ff0219169083151502179055507f5db9ee0a495bf2e6ff9c91a7834c1ba4fdd244a5e8aa4e537bd38aeae4b073aa610b4d610c8b565b604051610b5a9190611080565b60405180910390a1565b60008060009054906101000a900473ffffffffffffffffffffffffffffffffffffffff169050816000806101000a81548173ffffffffffffffffffffffffffffffffffffffff021916908373ffffffffffffffffffffffffffffffffffffffff1602179055508173ffffffffffffffffffffffffffffffffffffffff168173ffffffffffffffffffffffffffffffffffffffff167f8be0079c531659141344cd1fd0a4f28419497f9722a3daafe3b4186f6b6457e060405160405180910390a35050565b610c30610a3a565b6001600060146101000a81548160ff0219169083151502179055507f62e78cea01bee320cd4e420270b5ea74000d11b0c9f74754ebdbfc544b05a258610c74610c8b565b604051610c819190611080565b60405180910390a1565b600033905090565b610c9b61087f565b610cd1576040517f8dfc202b00000000000000000000000000000000000000000000000000000000815260040160405180910390fd5b565b6000604051905090565b600080fd5b600080fd5b600080fd5b6000601f19601f8301169050919050565b7f4e487b7100000000000000000000000000000000000000000000000000000000600052604160045260246000fd5b610d3582610cec565b810181811067ffffffffffffffff82111715610d5457610d53610cfd565b5b80604052505050565b6000610d67610cd3565b9050610d738282610d2c565b919050565b600067ffffffffffffffff821115610d9357610d92610cfd565b5b602082029050602081019050919050565b600080fd5b6000819050919050565b610dbc81610da9565b8114610dc757600080fd5b50565b600081359050610dd981610db3565b92915050565b6000610df2610ded84610d78565b610d5d565b90508083825260208201905060208402830185811115610e1557610e14610da4565b5b835b81811015610e3e5780610e2a8882610dca565b845260208401935050602081019050610e17565b5050509392505050565b600082601f830112610e5d57610e5c610ce7565b5b8135610e6d848260208601610ddf565b91505092915050565b6000819050919050565b610e8981610e76565b8114610e9457600080fd5b50565b600081359050610ea681610e80565b92915050565b60008060008060808587031215610ec657610ec5610cdd565b5b600085013567ffffffffffffffff811115610ee457610ee3610ce2565b5b610ef087828801610e48565b9450506020610f0187828801610e97565b9350506040610f1287828801610e97565b9250506060610f2387828801610e97565b91505092959194509250565b610f3881610da9565b82525050565b6000602082019050610f536000830184610f2f565b92915050565b600073ffffffffffffffffffffffffffffffffffffffff82169050919050565b6000610f8482610f59565b9050919050565b610f9481610f79565b8114610f9f57600080fd5b50565b600081359050610fb181610f8b565b92915050565b600060208284031215610fcd57610fcc610cdd565b5b6000610fdb84828501610fa2565b91505092915050565b610fed81610e76565b82525050565b60006020820190506110086000830184610fe4565b92915050565b60006020828403121561102457611023610cdd565b5b600061103284828501610dca565b91505092915050565b60008115159050919050565b6110508161103b565b82525050565b600060208201905061106b6000830184611047565b92915050565b61107a81610f79565b82525050565b60006020820190506110956000830184611071565b92915050565b6000819050919050565b60006110c06110bb6110b684610f59565b61109b565b610f59565b9050919050565b60006110d2826110a5565b9050919050565b60006110e4826110c7565b9050919050565b6110f4816110d9565b82525050565b600060208201905061110f60008301846110eb565b92915050565b60008151905061112481610e80565b92915050565b6000602082840312156111405761113f610cdd565b5b600061114e84828501611115565b91505092915050565b600082825260208201905092915050565b7f41697244726f703a204d79546f6b656e20636f6e747261637420646f6573206e60008201527f6f74206861766520656e6f75676820746f6b656e732e00000000000000000000602082015250565b60006111c4603683611157565b91506111cf82611168565b604082019050919050565b600060208201905081810360008301526111f3816111b7565b9050919050565b600060ff82169050919050565b60008160f81b9050919050565b600061121f82611207565b9050919050565b611237611232826111fa565b611214565b82525050565b60008160601b9050919050565b60006112558261123d565b9050919050565b60006112678261124a565b9050919050565b61127f61127a82610f79565b61125c565b82525050565b6000819050919050565b6112a061129b82610e76565b611285565b82525050565b60006112b28286611226565b6001820191506112c2828561126e565b6014820191506112d2828461128f565b602082019150819050949350505050565b7f4e487b7100000000000000000000000000000000000000000000000000000000600052603260045260246000fd5b6000819050919050565b61132d61132882610da9565b611312565b82525050565b600061133f8286611226565b60018201915061134f828561131c565b60208201915061135f828461131c565b602082019150819050949350505050565b7f4e487b7100000000000000000000000000000000000000000000000000000000600052601260045260246000fd5b7f4e487b7100000000000000000000000000000000000000000000000000000000600052601160045260246000fd5b60006113d982610e76565b91506113e483610e76565b9250826113f4576113f3611370565b5b828204905092915050565b600061ffff82169050919050565b6000611418826113ff565b915061ffff820361142c5761142b61139f565b5b600182019050919050565b7f41697244726f703a206164647265737320616e6420616d6f756e74206e6f742060008201527f696e207468652077686974656c697374206f722077726f6e672070726f6f662060208201527f70726f76696465642e0000000000000000000000000000000000000000000000604082015250565b60006114b9604983611157565b91506114c482611437565b606082019050919050565b600060208201905081810360008301526114e8816114ac565b9050919050565b60006114fa82610e76565b915061150583610e76565b925082820190508082111561151d5761151c61139f565b5b92915050565b7f41697244726f703a20416d6f756e7420657863656564732074686520746f746160008201527f6c2061737369676e65642e000000000000000000000000000000000000000000602082015250565b600061157f602b83611157565b915061158a82611523565b604082019050919050565b600060208201905081810360008301526115ae81611572565b9050919050565b60006040820190506115ca6000830185611071565b6115d76020830184610fe4565b9392505050565b6115e78161103b565b81146115f257600080fd5b50565b600081519050611604816115de565b92915050565b6000602082840312156116205761161f610cdd565b5b600061162e848285016115f5565b9150509291505056fea26469706673582212206a2fa05ace191fc057bce7a34f5a301d2dac64c900bf0c9e5d6bb0c93ae38ef164736f6c634300081b0033",
  "linkReferences": {},
  "deployedLinkReferences": {}
}