{
  "_format": "hh-sol-artifact-1",
  "contractName": "Airdrop",
  "sourceName": "contracts/Airdrop.sol",
  "abi": [
    {
      "inputs": [
        {
          "internalType": "bytes32",
          "name": "_merkleRoot",
          "type": "bytes32"
        },
        {
          "internalType": "address",
          "name": "_tokenAddress",
          "type": "address"
        }
      ],
      "stateMutability": "nonpayable",
      "type": "constructor"
    },
    {
      "inputs": [],
      "name": "EnforcedPause",
      "type": "error"
    },
    {
      "inputs": [],
      "name": "ExpectedPause",
      "type": "error"
    },
    {
      "inputs": [
        {
          "internalType": "address",
          "name": "owner",
          "type": "address"
        }
      ],
      "name": "OwnableInvalidOwner",
      "type": "error"
    },
    {
      "inputs": [
        {
          "internalType": "address",
          "name": "account",
          "type": "address"
        }
      ],
      "name": "OwnableUnauthorizedAccount",
      "type": "error"
    },
    {
      "anonymous": false,
      "inputs": [
        {
          "indexed": true,
          "internalType": "address",
          "name": "previousOwner",
          "type": "address"
        },
        {
          "indexed": true,
          "internalType": "address",
          "name": "newOwner",
          "type": "address"
        }
      ],
      "name": "OwnershipTransferred",
      "type": "event"
    },
    {
      "anonymous": false,
      "inputs": [
        {
          "indexed": false,
          "internalType": "address",
          "name": "account",
          "type": "address"
        }
      ],
      "name": "Paused",
      "type": "event"
    },
    {
      "anonymous": false,
      "inputs": [
        {
          "indexed": true,
          "internalType": "address",
          "name": "account",
          "type": "address"
        },
        {
          "indexed": false,
          "internalType": "uint256",
          "name": "amount",
          "type": "uint256"
        }
      ],
      "name": "TokensAirdropped",
      "type": "event"
    },
    {
      "anonymous": false,
      "inputs": [
        {
          "indexed": false,
          "internalType": "address",
          "name": "account",
          "type": "address"
        }
      ],
      "name": "Unpaused",
      "type": "event"
    },
    {
      "inputs": [
        {
          "internalType": "bytes32[]",
          "name": "_witnesses",
          "type": "bytes32[]"
        },
        {
          "internalType": "uint256",
          "name": "_totalAmount",
          "type": "uint256"
        },
        {
          "internalType": "uint256",
          "name": "_amount",
          "type": "uint256"
        }
      ],
      "name": "airdrop",
      "outputs": [],
      "stateMutability": "nonpayable",
      "type": "function"
    },
    {
      "inputs": [],
      "name": "getAirdropTokenBalance",
      "outputs": [
        {
          "internalType": "uint256",
          "name": "",
          "type": "uint256"
        }
      ],
      "stateMutability": "view",
      "type": "function"
    },
    {
      "inputs": [],
      "name": "merkleRoot",
      "outputs": [
        {
          "internalType": "bytes32",
          "name": "",
          "type": "bytes32"
        }
      ],
      "stateMutability": "view",
      "type": "function"
    },
    {
      "inputs": [],
      "name": "owner",
      "outputs": [
        {
          "internalType": "address",
          "name": "",
          "type": "address"
        }
      ],
      "stateMutability": "view",
      "type": "function"
    },
    {
      "inputs": [],
      "name": "pause",
      "outputs": [],
      "stateMutability": "nonpayable",
      "type": "function"
    },
    {
      "inputs": [],
      "name": "paused",
      "outputs": [
        {
          "internalType": "bool",
          "name": "",
          "type": "bool"
        }
      ],
      "stateMutability": "view",
      "type": "function"
    },
    {
      "inputs": [
        {
          "internalType": "address",
          "name": "",
          "type": "address"
        }
      ],
      "name": "redeemed",
      "outputs": [
        {
          "internalType": "uint256",
          "name": "",
          "type": "uint256"
        }
      ],
      "stateMutability": "view",
      "type": "function"
    },
    {
      "inputs": [
        {
          "internalType": "address",
          "name": "account",
          "type": "address"
        }
      ],
      "name": "redeemedTokens",
      "outputs": [
        {
          "internalType": "uint256",
          "name": "",
          "type": "uint256"
        }
      ],
      "stateMutability": "view",
      "type": "function"
    },
    {
      "inputs": [],
      "name": "renounceOwnership",
      "outputs": [],
      "stateMutability": "nonpayable",
      "type": "function"
    },
    {
      "inputs": [],
      "name": "token",
      "outputs": [
        {
          "internalType": "contract MyToken",
          "name": "",
          "type": "address"
        }
      ],
      "stateMutability": "view",
      "type": "function"
    },
    {
      "inputs": [
        {
          "internalType": "address",
          "name": "",
          "type": "address"
        }
      ],
      "name": "totalAssigned",
      "outputs": [
        {
          "internalType": "uint256",
          "name": "",
          "type": "uint256"
        }
      ],
      "stateMutability": "view",
      "type": "function"
    },
    {
      "inputs": [
        {
          "internalType": "address",
          "name": "account",
          "type": "address"
        }
      ],
      "name": "totalAssignedTokens",
      "outputs": [
        {
          "internalType": "uint256",
          "name": "",
          "type": "uint256"
        }
      ],
      "stateMutability": "view",
      "type": "function"
    },
    {
      "inputs": [
        {
          "internalType": "address",
          "name": "newOwner",
          "type": "address"
        }
      ],
      "name": "transferOwnership",
      "outputs": [],
      "stateMutability": "nonpayable",
      "type": "function"
    },
    {
      "inputs": [],
      "name": "unpause",
      "outputs": [],
      "stateMutability": "nonpayable",
      "type": "function"
    },
    {
      "inputs": [
        {
          "internalType": "bytes32",
          "name": "_airDropWhiteListMerkleRoot",
          "type": "bytes32"
        }
      ],
      "name": "updateMerkleRoot",
      "outputs": [],
      "stateMutability": "nonpayable",
      "type": "function"
    }
  ],
  "bytecode": "0x608060405234801561001057600080fd5b506040516119133803806119138339818101604052810190610032919061027b565b33600073ffffffffffffffffffffffffffffffffffffffff168173ffffffffffffffffffffffffffffffffffffffff16036100a55760006040517f1e4fbdf700000000000000000000000000000000000000000000000000000000815260040161009c91906102ca565b60405180910390fd5b6100b48161011e60201b60201c565b5060008060146101000a81548160ff0219169083151502179055508160018190555080600260006101000a81548173ffffffffffffffffffffffffffffffffffffffff021916908373ffffffffffffffffffffffffffffffffffffffff16021790555050506102e5565b60008060009054906101000a900473ffffffffffffffffffffffffffffffffffffffff169050816000806101000a81548173ffffffffffffffffffffffffffffffffffffffff021916908373ffffffffffffffffffffffffffffffffffffffff1602179055508173ffffffffffffffffffffffffffffffffffffffff168173ffffffffffffffffffffffffffffffffffffffff167f8be0079c531659141344cd1fd0a4f28419497f9722a3daafe3b4186f6b6457e060405160405180910390a35050565b600080fd5b6000819050919050565b6101fa816101e7565b811461020557600080fd5b50565b600081519050610217816101f1565b92915050565b600073ffffffffffffffffffffffffffffffffffffffff82169050919050565b60006102488261021d565b9050919050565b6102588161023d565b811461026357600080fd5b50565b6000815190506102758161024f565b92915050565b60008060408385031215610292576102916101e2565b5b60006102a085828601610208565b92505060206102b185828601610266565b9150509250929050565b6102c48161023d565b82525050565b60006020820190506102df60008301846102bb565b92915050565b61161f806102f46000396000f3fe608060405234801561001057600080fd5b50600436106100f55760003560e01c8063715018a611610097578063bb7611db11610066578063bb7611db1461023c578063e3a82b8b14610258578063f2fde38b14610288578063fc0c546a146102a4576100f5565b8063715018a6146101da5780638456cb59146101e45780638da5cb5b146101ee5780639f4568ef1461020c576100f5565b80634783f0ef116100d35780634783f0ef1461015257806357212ae91461016e5780635c975abb1461018c578063682eb32b146101aa576100f5565b80632eb4a7ab146100fa5780633f4ba83a1461011857806343101ddb14610122575b600080fd5b6101026102c2565b60405161010f9190610d12565b60405180910390f35b6101206102c8565b005b61013c60048036038101906101379190610d9f565b6102da565b6040516101499190610de5565b60405180910390f35b61016c60048036038101906101679190610e2c565b6102f2565b005b610176610304565b6040516101839190610de5565b60405180910390f35b6101946103a7565b6040516101a19190610e74565b60405180910390f35b6101c460048036038101906101bf9190610d9f565b6103bd565b6040516101d19190610de5565b60405180910390f35b6101e2610406565b005b6101ec61041a565b005b6101f661042c565b6040516102039190610e9e565b60405180910390f35b61022660048036038101906102219190610d9f565b610455565b6040516102339190610de5565b60405180910390f35b6102566004803603810190610251919061103e565b61046d565b005b610272600480360381019061026d9190610d9f565b610848565b60405161027f9190610de5565b60405180910390f35b6102a2600480360381019061029d9190610d9f565b610891565b005b6102ac610917565b6040516102b9919061110c565b60405180910390f35b60015481565b6102d061093d565b6102d86109c4565b565b60046020528060005260406000206000915090505481565b6102fa61093d565b8060018190555050565b6000600260009054906101000a900473ffffffffffffffffffffffffffffffffffffffff1673ffffffffffffffffffffffffffffffffffffffff166370a08231306040518263ffffffff1660e01b81526004016103619190610e9e565b602060405180830381865afa15801561037e573d6000803e3d6000fd5b505050506040513d601f19601f820116820180604052508101906103a2919061113c565b905090565b60008060149054906101000a900460ff16905090565b6000600360008373ffffffffffffffffffffffffffffffffffffffff1673ffffffffffffffffffffffffffffffffffffffff168152602001908152602001600020549050919050565b61040e61093d565b6104186000610a26565b565b61042261093d565b61042a610aea565b565b60008060009054906101000a900473ffffffffffffffffffffffffffffffffffffffff16905090565b60036020528060005260406000206000915090505481565b610475610b4d565b80600260009054906101000a900473ffffffffffffffffffffffffffffffffffffffff1673ffffffffffffffffffffffffffffffffffffffff166370a08231306040518263ffffffff1660e01b81526004016104d19190610e9e565b602060405180830381865afa1580156104ee573d6000803e3d6000fd5b505050506040513d601f19601f82011682018060405250810190610512919061113c565b1015610553576040517f08c379a000000000000000000000000000000000000000000000000000000000815260040161054a906111ec565b60405180910390fd5b600061055f8385610b8e565b905060015481146105a5576040517f08c379a000000000000000000000000000000000000000000000000000000000815260040161059c906112a4565b60405180910390fd5b6000600460003373ffffffffffffffffffffffffffffffffffffffff1673ffffffffffffffffffffffffffffffffffffffff16815260200190815260200160002054036106315782600460003373ffffffffffffffffffffffffffffffffffffffff1673ffffffffffffffffffffffffffffffffffffffff168152602001908152602001600020819055505b600460003373ffffffffffffffffffffffffffffffffffffffff1673ffffffffffffffffffffffffffffffffffffffff1681526020019081526020016000205482600360003373ffffffffffffffffffffffffffffffffffffffff1673ffffffffffffffffffffffffffffffffffffffff168152602001908152602001600020546106bc91906112f3565b11156106fd576040517f08c379a00000000000000000000000000000000000000000000000000000000081526004016106f490611399565b60405180910390fd5b81600360003373ffffffffffffffffffffffffffffffffffffffff1673ffffffffffffffffffffffffffffffffffffffff168152602001908152602001600020600082825461074c91906112f3565b92505081905550600260009054906101000a900473ffffffffffffffffffffffffffffffffffffffff1673ffffffffffffffffffffffffffffffffffffffff1663a9059cbb33846040518363ffffffff1660e01b81526004016107b09291906113b9565b6020604051808303816000875af11580156107cf573d6000803e3d6000fd5b505050506040513d601f19601f820116820180604052508101906107f3919061140e565b503373ffffffffffffffffffffffffffffffffffffffff167fb82d2a7de6e3c04c554cd659f5f2b8d49c0131c0363c91a4ccef6756d16029908360405161083a9190610de5565b60405180910390a250505050565b6000600460008373ffffffffffffffffffffffffffffffffffffffff1673ffffffffffffffffffffffffffffffffffffffff168152602001908152602001600020549050919050565b61089961093d565b600073ffffffffffffffffffffffffffffffffffffffff168173ffffffffffffffffffffffffffffffffffffffff160361090b5760006040517f1e4fbdf70000000000000000000000000000000000000000000000000000000081526004016109029190610e9e565b60405180910390fd5b61091481610a26565b50565b600260009054906101000a900473ffffffffffffffffffffffffffffffffffffffff1681565b610945610cb1565b73ffffffffffffffffffffffffffffffffffffffff1661096361042c565b73ffffffffffffffffffffffffffffffffffffffff16146109c257610986610cb1565b6040517f118cdaa70000000000000000000000000000000000000000000000000000000081526004016109b99190610e9e565b60405180910390fd5b565b6109cc610cb9565b60008060146101000a81548160ff0219169083151502179055507f5db9ee0a495bf2e6ff9c91a7834c1ba4fdd244a5e8aa4e537bd38aeae4b073aa610a0f610cb1565b604051610a1c9190610e9e565b60405180910390a1565b60008060009054906101000a900473ffffffffffffffffffffffffffffffffffffffff169050816000806101000a81548173ffffffffffffffffffffffffffffffffffffffff021916908373ffffffffffffffffffffffffffffffffffffffff1602179055508173ffffffffffffffffffffffffffffffffffffffff168173ffffffffffffffffffffffffffffffffffffffff167f8be0079c531659141344cd1fd0a4f28419497f9722a3daafe3b4186f6b6457e060405160405180910390a35050565b610af2610b4d565b6001600060146101000a81548160ff0219169083151502179055507f62e78cea01bee320cd4e420270b5ea74000d11b0c9f74754ebdbfc544b05a258610b36610cb1565b604051610b439190610e9e565b60405180910390a1565b610b556103a7565b15610b8c576040517fd93c066500000000000000000000000000000000000000000000000000000000815260040160405180910390fd5b565b60008060003385604051602001610ba7939291906114e7565b60405160208183030381529060405280519060200120905060005b83518161ffff161015610ca657838161ffff1681518110610be657610be5611524565b5b6020026020010151821015610c4657600182858361ffff1681518110610c0f57610c0e611524565b5b6020026020010151604051602001610c2993929190611574565b604051602081830303815290604052805190602001209150610c93565b6001848261ffff1681518110610c5f57610c5e611524565b5b602002602001015183604051602001610c7a93929190611574565b6040516020818303038152906040528051906020012091505b8080610c9e906115bf565b915050610bc2565b508091505092915050565b600033905090565b610cc16103a7565b610cf7576040517f8dfc202b00000000000000000000000000000000000000000000000000000000815260040160405180910390fd5b565b6000819050919050565b610d0c81610cf9565b82525050565b6000602082019050610d276000830184610d03565b92915050565b6000604051905090565b600080fd5b600080fd5b600073ffffffffffffffffffffffffffffffffffffffff82169050919050565b6000610d6c82610d41565b9050919050565b610d7c81610d61565b8114610d8757600080fd5b50565b600081359050610d9981610d73565b92915050565b600060208284031215610db557610db4610d37565b5b6000610dc384828501610d8a565b91505092915050565b6000819050919050565b610ddf81610dcc565b82525050565b6000602082019050610dfa6000830184610dd6565b92915050565b610e0981610cf9565b8114610e1457600080fd5b50565b600081359050610e2681610e00565b92915050565b600060208284031215610e4257610e41610d37565b5b6000610e5084828501610e17565b91505092915050565b60008115159050919050565b610e6e81610e59565b82525050565b6000602082019050610e896000830184610e65565b92915050565b610e9881610d61565b82525050565b6000602082019050610eb36000830184610e8f565b92915050565b600080fd5b6000601f19601f8301169050919050565b7f4e487b7100000000000000000000000000000000000000000000000000000000600052604160045260246000fd5b610f0782610ebe565b810181811067ffffffffffffffff82111715610f2657610f25610ecf565b5b80604052505050565b6000610f39610d2d565b9050610f458282610efe565b919050565b600067ffffffffffffffff821115610f6557610f64610ecf565b5b602082029050602081019050919050565b600080fd5b6000610f8e610f8984610f4a565b610f2f565b90508083825260208201905060208402830185811115610fb157610fb0610f76565b5b835b81811015610fda5780610fc68882610e17565b845260208401935050602081019050610fb3565b5050509392505050565b600082601f830112610ff957610ff8610eb9565b5b8135611009848260208601610f7b565b91505092915050565b61101b81610dcc565b811461102657600080fd5b50565b60008135905061103881611012565b92915050565b60008060006060848603121561105757611056610d37565b5b600084013567ffffffffffffffff81111561107557611074610d3c565b5b61108186828701610fe4565b935050602061109286828701611029565b92505060406110a386828701611029565b9150509250925092565b6000819050919050565b60006110d26110cd6110c884610d41565b6110ad565b610d41565b9050919050565b60006110e4826110b7565b9050919050565b60006110f6826110d9565b9050919050565b611106816110eb565b82525050565b600060208201905061112160008301846110fd565b92915050565b60008151905061113681611012565b92915050565b60006020828403121561115257611151610d37565b5b600061116084828501611127565b91505092915050565b600082825260208201905092915050565b7f41697244726f703a204d79546f6b656e20636f6e747261637420646f6573206e60008201527f6f74206861766520656e6f75676820746f6b656e732e00000000000000000000602082015250565b60006111d6603683611169565b91506111e18261117a565b604082019050919050565b60006020820190508181036000830152611205816111c9565b9050919050565b7f41697244726f703a206164647265737320616e6420616d6f756e74206e6f742060008201527f696e207468652077686974656c697374206f722077726f6e672070726f6f662060208201527f70726f76696465642e0000000000000000000000000000000000000000000000604082015250565b600061128e604983611169565b91506112998261120c565b606082019050919050565b600060208201905081810360008301526112bd81611281565b9050919050565b7f4e487b7100000000000000000000000000000000000000000000000000000000600052601160045260246000fd5b60006112fe82610dcc565b915061130983610dcc565b9250828201905080821115611321576113206112c4565b5b92915050565b7f41697244726f703a20416d6f756e7420657863656564732074686520746f746160008201527f6c2061737369676e65642e000000000000000000000000000000000000000000602082015250565b6000611383602b83611169565b915061138e82611327565b604082019050919050565b600060208201905081810360008301526113b281611376565b9050919050565b60006040820190506113ce6000830185610e8f565b6113db6020830184610dd6565b9392505050565b6113eb81610e59565b81146113f657600080fd5b50565b600081519050611408816113e2565b92915050565b60006020828403121561142457611423610d37565b5b6000611432848285016113f9565b91505092915050565b600060ff82169050919050565b60008160f81b9050919050565b600061146082611448565b9050919050565b6114786114738261143b565b611455565b82525050565b60008160601b9050919050565b60006114968261147e565b9050919050565b60006114a88261148b565b9050919050565b6114c06114bb82610d61565b61149d565b82525050565b6000819050919050565b6114e16114dc82610dcc565b6114c6565b82525050565b60006114f38286611467565b60018201915061150382856114af565b60148201915061151382846114d0565b602082019150819050949350505050565b7f4e487b7100000000000000000000000000000000000000000000000000000000600052603260045260246000fd5b6000819050919050565b61156e61156982610cf9565b611553565b82525050565b60006115808286611467565b600182019150611590828561155d565b6020820191506115a0828461155d565b602082019150819050949350505050565b600061ffff82169050919050565b60006115ca826115b1565b915061ffff82036115de576115dd6112c4565b5b60018201905091905056fea264697066735822122014d32b3f322bf4259cf7cb7191a4d535cd3ebd428f5ba062d23775fad441ed2a64736f6c634300081b0033",
  "linkReferences": {},
  "deployedLinkReferences": {}
}